:100000000C9434000C9446000C9446000C9446006A
:100010000C9446000C9446000C9446000C94460048
:100020000C9446000C9446000C9446000C94460038
:100030000C9446000C9446000C9446000C94460028
:100040000C9446000C9446000C9446000C94460018
:100050000C9446000C9446000C9446000C94460008
:100060000C9446000C94460011241FBECFEFD8E03C
:10007000DEBFCDBF21E0A0E0B1E001C01D92A23003
:10008000B207E1F70E9462000C94A5000C940000F6
:100090008FEF8093C5008093C40086E08093C200F8
:1000A00088E18093C10008959091C00095FFFCCF36
:1000B0008093C60008958091C00087FFFCCF809197
:1000C000C60008950E9448000E945B00182F682F08
:1000D00080910001909101010E949700C091000160
:1000E000D09101012196D0930101C0930001F999AB
:1000F000FECF1111E9CF00E010E00C171D0754F4FA
:10010000C8010E948F000E945400F999FECF0F5F32
:100110001F4FF3CF1092010110920001D5CFF99932
:10012000FECF92BD81BDF89A992780B50895262FFC
:10013000F999FECF1FBA92BD81BD20BD0FB6F894CC
:0E014000FA9AF99A0FBE01960895F894FFCF2F
:00000001FF
